VAB  202001870638 GTTGTT0924   USGLSNGLOSUSGLSNGLOS          RSTESTV8700          000138509299306    38509299307              VEHA8700            USED SMALL VAN(S)                  T         N                             TOYOTA HIGHLANDER                  2018                     000087086909000000140000ABCDWXYZ                                                                                                  TOYOTA                             HIGHLANDER                         TOYHIGH     P  0870      8700      8707      BARA8700                                                1                                                                                                                                                                                                                                                                                                                                                       XXXX FAKE PTML LAGOS               TIN CAN ISLAND                                                                                                                                        SAME AS CONSIGNEE                                                                                                                                                                        000087086909000000013677N0000T1-00870935-00                                              
VAB  202001870638 GTTGTT0924   USGLSNGLOSUSGLSNGLOS          RSTESTV8700          000138509299306    38512870739              VEHB8700            USED CAR(S)                        T         U                             TOYOTA CAMRY                       2018                     000001086909000000000000ABCDWXYZ                                                                                                  TOYOTA                             CAMRY                              TOYCAMR     P  0870      8700      8707      BARB8700                                                                                                                                                                                                                                                                                                                                                                                                        XXXX FAKE PTML LAGOS               TIN CAN ISLAND                                                                                                                                        SAME AS CONSIGNEE                                                                                                                                                                        000087086909000000018700N0000T1-00870935-00                                              
VAB  202001870638 GTTGTT0924   USGLSNGLOSUSGLSNGLOS          RSTESTV8701          000138509299306    38509299307              VEHA8701            USED SMALL VAN(S)                  T         N                             TOYOTA HIGHLANDER                  2018                     000087086909000000000000ABCDWXYZ                                                                                                  TOYOTA                             HIGHLANDER                         TOYHIGH     P  0870      8700      8707      BARA8701                                                1                                                                                                                                                                                                                                                                                                                                                       XXXX FAKE PTML LAGOS               TIN CAN ISLAND                                                                                                                                        SAME AS CONSIGNEE                                                                                                                                                                        000087086909000000013677N0000T1-00870935-00                                              
VAB  202001870638 GTTGTT0924   USGLSNGLOSUSGLSNGLOS          RSTESTV8701          000138509299306    38512870739              VEHB8701            USED CAR(S)                        T         U                             TOYOTA CAMRY                       2018                     000001086909000000000000ABCDWXYZ                                                                                                  TOYOTA                             CAMRY                              TOYCAMR     P  0870      8700      8707      BARB8701                                                                                                                                                                                                                                                                                                                                                                                                        XXXX FAKE PTML LAGOS               TIN CAN ISLAND                                                                                                                                        SAME AS CONSIGNEE                                                                                                                                                                        000087086909000000018700N0000T1-00870935-00                                              
VAB  202001870638 GTTGTT0924   USGLSNGLOSUSGLSNGLOS          RSTESTV8702          000138509299306    38509299307              VEHA8702            USED SMALL VAN(S)                  V         N                             TOYOTA HIGHLANDER                  2018                     00008708690900000000000870347890                                                                                                  TOYOTA                             HIGHLANDER                         TOYHIGH     P  0870      8700      8707      BARA8702                                                1                                                                                                                                                                                                                                                                                                                                                       XXXX FAKE PTML LAGOS               TIN CAN ISLAND                                                                                                                                        SAME AS CONSIGNEE                                                                                                                                                                        000087086909000000013677N0000T1-00870935-00                                              
VAB  202001870638 GTTGTT0924   USGLSNGLOSUSGLSNGLOS          RSTESTV8702          000138509299306    38512870739              VEHB8702            USED CAR(S)                        C         U                             TOYOTA CAMRY                       2013                     00000108690900000000000870347890                                                                                                  TOYOTA                             CAMRY                              TOYCAMR     P  0870      8700      8707      BARB8702                                                                                                                                                                                                                                                                                                                                                                                                        XXXX FAKE PTML LAGOS               TIN CAN ISLAND                                                                                                                                        SAME AS CONSIGNEE                                                                                                                                                                        000087086909000000015001N0000T1-00870935-00                                              
VAB  202001870638 GTTGTT0924   USGLSNGLOSUSGLSNGLOS          RSTESTV8703          000138509299306    38509299307              VEHA8703            USED SMALL VAN(S)                  V         N                             TOYOTA HIGHLANDER                  2018                     000087086909000000000000ABCDWXYZ                                                                                                  TOYOTA                             HIGHLANDER                         TOYHIGH     P  0870      8700      8707      BARA8703                                                1                                                                                                                                                                                                                                                                                                                                                       XXXX FAKE PTML LAGOS               TIN CAN ISLAND                                                                                                                                        SAME AS CONSIGNEE                                                                                                                                                                        000087086909000000013677N0000T1-00870935-00                                              
VAB  202001870638 GTTGTT0924   USGLSNGLOSUSGLSNGLOS          RSTESTV8703          000138509299306    38512870739              VEHB8703            USED CAR(S)                        C         U                             TOYOTA CAMRY                       2013                     000001086909000000000000ABCDWXYZ                                                                                                  TOYOTA                             CAMRY                              TOYCAMR     P  0870      8700      8707      BARB8703                                                                                                                                                                                                                                                                                                                                                                                                        XXXX FAKE PTML LAGOS               TIN CAN ISLAND                                                                                                                                        SAME AS CONSIGNEE                                                                                                                                                                        000087086909000000010677N0000T1-00870935-00                                              
VAB  202001870638 GTTGTT0924   USGLSNGLOSUSGLSNGLOS          RSTESTV8704          000138509299306    38509299307              VEHA8704            USED SMALL VAN(S)                  V         N                             TOYOTA HIGHLANDER                  2018                     00008708690900000000000870347890                                                                                                  TOYOTA                             HIGHLANDER                         TOYHIGH     P  0870      8700      8707      BARA8704                                                1                                                                                                                                                                                                                                                                                                                                                       XXXX FAKE PTML LAGOS               TIN CAN ISLAND                                                                                                                                        SAME AS CONSIGNEE                                                                                                                                                                        000087086909000000013677N0000T1-00870935-00                                              
VAB  202001870638 GTTGTT0924   USGLSNGLOSUSGLSNGLOS          RSTESTV8704          000138509299306    38512870739              VEHB8704            USED CAR(S)                        C         U                             TOYOTA CAMRY                       2013                     00000108690900000000000870347890                                                                                                  TOYOTA                             CAMRY                              TOYCAMR     P  0870      8700      8707      BARB8704                                                                                                                                                                                                                                                                                                                                                                                                        XXXX FAKE PTML LAGOS               TIN CAN ISLAND                                                                                                                                        SAME AS CONSIGNEE                                                                                                                                                                        000087086909000000010677N0000T1-00870935-00                                              
VAB  202001870638 GTTGTT0924   USGLSNGLOSUSGLSNGLOS          RSTESTV8705          000138509299306    38509299307              VEHA8705            USED SMALL VAN(S)                  V         N                             TOYOTA HIGHLANDER                  2018                     000087086909000000000000ABCDWXYZ                                                                                                  TOYOTA                             HIGHLANDER                         TOYHIGH     P  0870      8700      8707      BARA8705                                                1                                                                                                                                                                                                                                                                                                                                                       XXXX FAKE PTML LAGOS               TIN CAN ISLAND                                                                                                                                        SAME AS CONSIGNEE                                                                                                                                                                        000087086909000000013677N0000T1-00870935-00                                              
VAB  202001870638 GTTGTT0924   USGLSNGLOSUSGLSNGLOS          RSTESTV8705          000138509299306    38512870739              VEHB8705            USED CAR(S)                        C         U                             TOYOTA CAMRY                       2013                     000001086909000000000000ABCDWXYZ                                                                                                  TOYOTA                             CAMRY                              TOYCAMR     P  0870      8700      8707      BARB8705                                                                                                                                                                                                                                                                                                                                                                                                        XXXX FAKE PTML LAGOS               TIN CAN ISLAND                                                                                                                                        SAME AS CONSIGNEE                                                                                                                                                                        000087086909000000010677N0000T1-00870935-00                                              
VAB  202001870638 GTTGTT0924   USGLSNGLOSUSGLSNGLOS          RSTESTV8706          000138509299306    38509299307              VEHA8706            USED SMALL VAN(S)                  V         N                             TOYOTA HIGHLANDER                  2018                     00008708690900000000000870347890                                                                                                  TOYOTA                             HIGHLANDER                         TOYHIGH     P  0870      8700      8707      BARA8706                                                1                                                                                                                                                                                                                                                                                                                                                       XXXX FAKE PTML LAGOS               TIN CAN ISLAND                                                                                                                                        SAME AS CONSIGNEE                                                                                                                                                                        000087086909000000013677N0000T1-00870935-00                                              
VAB  202001870638 GTTGTT0924   USGLSNGLOSUSGLSNGLOS          RSTESTV8706          000138509299306    38512870739              VEHB8706            USED CAR(S)                        C         U                             TOYOTA CAMRY                       2013                     00000108690900000000000870347890                                                                                                  TOYOTA                             CAMRY                              TOYCAMR     P  0870      8700      8707      BARB8706                                                                                                                                                                                                                                                                                                                                                                                                        XXXX FAKE PTML LAGOS               TIN CAN ISLAND                                                                                                                                        SAME AS CONSIGNEE                                                                                                                                                                        000087086909000000010677N0000T1-00870935-00                                              
VAB  202001870638 GTTGTT0924   USGLSNGLOSUSGLSNGLOS          RSTESTV8707          000138509299306    38509299307              VEHA8707            USED SMALL VAN(S)                  V         N                             TOYOTA HIGHLANDER                  2018                     000087086909000000000000ABCDWXYZ                                                                                                  TOYOTA                             HIGHLANDER                         TOYHIGH     P  0870      8700      8707      BARA8707                                                1                                                                                                                                                                                                                                                                                                                                                       XXXX FAKE PTML LAGOS               TIN CAN ISLAND                                                                                                                                        SAME AS CONSIGNEE                                                                                                                                                                        000087086909000000013677N0000T1-00870935-00                                              
VAB  202001870638 GTTGTT0924   USGLSNGLOSUSGLSNGLOS          RSTESTV8707          000138509299306    38512870739              VEHB8707            USED CAR(S)                        C         U                             TOYOTA CAMRY                       2013                     000001086909000000000000ABCDWXYZ                                                                                                  TOYOTA                             CAMRY                              TOYCAMR     P  0870      8700      8707      BARB8707                                                                                                                                                                                                                                                                                                                                                                                                        XXXX FAKE PTML LAGOS               TIN CAN ISLAND                                                                                                                                        SAME AS CONSIGNEE                                                                                                                                                                        000087086909000000010677N0000T1-00870935-00                                              
VAB  202001870638 GTTGTT0924   USGLSNGLOSUSGLSNGLOS          RSTESTV8708          000138509299306    38509299307              VEHA8708            USED SMALL VAN(S)                  V         N                             TOYOTA HIGHLANDER                  2018                     00008708690900000000000870347890                                                                                                  TOYOTA                             HIGHLANDER                         TOYHIGH     P  0870      8700      8707      BARA8708                                                1                                                                                                                                                                                                                                                                                                                                                       XXXX FAKE PTML LAGOS               TIN CAN ISLAND                                                                                                                                        SAME AS CONSIGNEE                                                                                                                                                                        000087086909000000013677N0000T1-00870935-00                                              
VAB  202001870638 GTTGTT0924   USGLSNGLOSUSGLSNGLOS          RSTESTV8708          000138509299306    38512870739              VEHB8708            USED CAR(S)                        C         U                             TOYOTA CAMRY                       2018                     00000108690900000000000870347890                                                                                                  TOYOTA                             CAMRY                              TOYCAMR     P  0870      8700      8707      BARB8708                                                                                                                                                                                                                                                                                                                                                                                                        XXXX FAKE PTML LAGOS               TIN CAN ISLAND                                                                                                                                        SAME AS CONSIGNEE                                                                                                                                                                        000087086909000000010677N0000T1-00870935-00                                              
VAB  202001870638 GTTGTT0924   USGLSNGLOSUSGLSNGLOS          RSTESTV8709          000138509299306    38509299307              VEHA8709            USED SMALL VAN(S)                  V         N                             TOYOTA HIGHLANDER                  2013                     000087086909000000000000ABCDWXYZ                                                                                                  TOYOTA                             HIGHLANDER                         TOYHIGH     P  0870      8700      8707      BARA8709                                                1                                                                                                                                                                                                                                                                                                                                                       XXXX FAKE PTML LAGOS               TIN CAN ISLAND                                                                                                                                        SAME AS CONSIGNEE                                                                                                                                                                        000087086909000000013677N0000T1-00870935-00                                              
VAB  202001870638 GTTGTT0924   USGLSNGLOSUSGLSNGLOS          RSTESTV8709          000138509299306    38512870739              VEHB8709            USED CAR(S)                        C         U                             TOYOTA CAMRY                       2013                     000001086909000000000000ABCDWXYZ                                                                                                  TOYOTA                             CAMRY                              TOYCAMR     P  0870      8700      8707      BARB8709                                                                                                                                                                                                                                                                                                                                                                                                        XXXX FAKE PTML LAGOS               TIN CAN ISLAND                                                                                                                                        SAME AS CONSIGNEE                                                                                                                                                                        000087086909000000010677N0000T1-00870935-00                                              
